:020000040000FA
:060000000A128A11FC2F18
:100F64000800831603130610861006118312031358
:100F74000610861006110800701CC12FC22FC62F40
:100F8400831203130614C92F831203130610F01CD3
:100F9400CC2FCD2FCF2F8614D02F8610701DD32F9A
:100FA400D42FD62F0615D72F061108000A128A113E
:100FB400B2270A128A110A128A11B3270A128A1155
:100FC4000130F0000030F1000A128A11BE270A1223
:100FD4008A110B30F4002630F3005D30F200F20B7E
:100FE400F12FF30BF12FF40BF12FF82FE22F0A124C
:0C0FF4008A11002883010A128A11D82FEC
:04400E000220FF3855
:00000001FF
