:020000040000FA
:040000008A11FD2F35
:100F3000080083160313061086100611861183120B
:100F40000313061086100611861108008A119827CF
:100F50008A118A1199278A118A11BD278A110130B5
:100F6000F0000030F1000630F2000030F3008A118A
:100F7000DA278A11AF2F8A11002803108312031376
:100F8000861D03140318C52FC92F8312031386155A
:100F9000CC2F8312031386110B30F2002630F100A0
:100FA0005D30F000F00BD22FF10BD22FF20BD22FCD
:100FB000D92F080070037104031DDF2FE02FEB2FE2
:100FC000063072067304031DE62FE72FEB2F063061
:100FD00083120313860070037104031DF02FF12F99
:100FE000FC2F053072067304031DF72FF82FFC2F1A
:100FF0000530831203138600080083018A11A62F8F
:04400E000008FC3F6B
:00000001FF
